{
  "contractName": "DappToken",
  "abi": [
    {
      "inputs": [],
      "payable": false,
      "stateMutability": "nonpayable",
      "type": "constructor"
    },
    {
      "constant": true,
      "inputs": [],
      "name": "totalSupply",
      "outputs": [
        {
          "internalType": "uint256",
          "name": "",
          "type": "uint256"
        }
      ],
      "payable": false,
      "stateMutability": "view",
      "type": "function"
    }
  ],
  "bytecode": "0x6080604052348015600f57600080fd5b50620f42406000819055506084806100286000396000f3fe6080604052348015600f57600080fd5b506004361060285760003560e01c806318160ddd14602d575b600080fd5b60336049565b6040518082815260200191505060405180910390f35b6000548156fea265627a7a72315820479e8139bf911ccdebf24b00dc139e7024930a69dadd59899b46a26ae9c0a72264736f6c634300050c0032",
  "source": "pragma solidity^0.5.12;\n\n//Functions and variables here need to follow ERC20 statndrd\n\n contract DappToken {\n \t// Constructor\n \t// Set the total number of tokens\n \t// Read the total number of tokens\n \tuint256 public totalSupply;\n\n \tconstructor () public {\n \t\ttotalSupply = 1000000; //state variable\n \t}\n }",
  "sourcePath": "/Users/jimfan/Desktop/Projects/token_sale/contracts/DappToken.sol",
  "compiler": {
    "name": "solc",
    "version": "0.5.12+commit.7709ece9.Emscripten.clang"
  },
  "schemaVersion": "3.0.19",
  "updatedAt": "2019-12-15T20:59:53.391Z",
  "networkType": "ethereum",
  "devdoc": {
    "methods": {}
  },
  "userdoc": {
    "methods": {}
  }
}